{
  "contractName": "Profile",
  "abi": [
    {
      "constant": true,
      "inputs": [],
      "name": "userCount",
      "outputs": [
        {
          "name": "",
          "type": "uint256"
        }
      ],
      "payable": false,
      "stateMutability": "view",
      "type": "function",
      "signature": "0x07973ccf"
    },
    {
      "constant": true,
      "inputs": [
        {
          "name": "",
          "type": "uint256"
        }
      ],
      "name": "usersById",
      "outputs": [
        {
          "name": "id",
          "type": "uint256"
        },
        {
          "name": "name",
          "type": "string"
        },
        {
          "name": "role",
          "type": "string"
        },
        {
          "name": "profileImg",
          "type": "string"
        },
        {
          "name": "isRegistered",
          "type": "bool"
        }
      ],
      "payable": false,
      "stateMutability": "view",
      "type": "function",
      "signature": "0x426b5382"
    },
    {
      "inputs": [],
      "payable": false,
      "stateMutability": "nonpayable",
      "type": "constructor",
      "signature": "constructor"
    },
    {
      "constant": false,
      "inputs": [
        {
          "name": "_name",
          "type": "string"
        },
        {
          "name": "_role",
          "type": "string"
        },
        {
          "name": "_profileImg",
          "type": "string"
        },
        {
          "name": "_isRegistered",
          "type": "bool"
        }
      ],
      "name": "createUser",
      "outputs": [],
      "payable": false,
      "stateMutability": "nonpayable",
      "type": "function",
      "signature": "0xe4f3ad95"
    }
  ],
  "bytecode": "0x60806040526000805534801561001457600080fd5b5061011d6040805190810160405280600781526020017f4d696c65636961000000000000000000000000000000000000000000000000008152506040805190810160405280600581526020017f61646d696e000000000000000000000000000000000000000000000000000000815250608060405190810160405280605081526020017f68747470733a2f2f7265732e636c6f7564696e6172792e636f6d2f6d696c656381526020017f69612f696d6167652f75706c6f61642f76313632343831313832352f6265616381526020017f682d3336305f70367530386a2e6a7067000000000000000000000000000000008152506001610122640100000000026401000000009004565b6102a2565b600080815480929190600101919050555060a060405190810160405280600054815260200185815260200184815260200183815260200182151581525060016000805481526020019081526020016000206000820151816000015560208201518160010190805190602001906101999291906101fd565b5060408201518160020190805190602001906101b69291906101fd565b5060608201518160030190805190602001906101d39291906101fd565b5060808201518160040160006101000a81548160ff02191690831515021790555090505050505050565b828054600181600116156101000203166002900490600052602060002090601f016020900481019282601f1061023e57805160ff191683800117855561026c565b8280016001018555821561026c579182015b8281111561026b578251825591602001919060010190610250565b5b509050610279919061027d565b5090565b61029f91905b8082111561029b576000816000905550600101610283565b5090565b90565b6107e4806102b16000396000f3fe608060405260043610610057576000357c0100000000000000000000000000000000000000000000000000000000900463ffffffff16806307973ccf1461005c578063426b538214610087578063e4f3ad9514610225575b600080fd5b34801561006857600080fd5b50610071610427565b6040518082815260200191505060405180910390f35b34801561009357600080fd5b506100c0600480360360208110156100aa57600080fd5b810190808035906020019092919050505061042d565b6040518086815260200180602001806020018060200185151515158152602001848103845288818151815260200191508051906020019080838360005b838110156101185780820151818401526020810190506100fd565b50505050905090810190601f1680156101455780820380516001836020036101000a031916815260200191505b50848103835287818151815260200191508051906020019080838360005b8381101561017e578082015181840152602081019050610163565b50505050905090810190601f1680156101ab5780820380516001836020036101000a031916815260200191505b50848103825286818151815260200191508051906020019080838360005b838110156101e45780820151818401526020810190506101c9565b50505050905090810190601f1680156102115780820380516001836020036101000a031916815260200191505b509850505050505050505060405180910390f35b34801561023157600080fd5b506104256004803603608081101561024857600080fd5b810190808035906020019064010000000081111561026557600080fd5b82018360208201111561027757600080fd5b8035906020019184600183028401116401000000008311171561029957600080fd5b91908080601f016020809104026020016040519081016040528093929190818152602001838380828437600081840152601f19601f820116905080830192505050505050509192919290803590602001906401000000008111156102fc57600080fd5b82018360208201111561030e57600080fd5b8035906020019184600183028401116401000000008311171561033057600080fd5b91908080601f016020809104026020016040519081016040528093929190818152602001838380828437600081840152601f19601f8201169050808301925050505050505091929192908035906020019064010000000081111561039357600080fd5b8201836020820111156103a557600080fd5b803590602001918460018302840111640100000000831117156103c757600080fd5b91908080601f016020809104026020016040519081016040528093929190818152602001838380828437600081840152601f19601f820116905080830192505050505050509192919290803515159060200190929190505050610638565b005b60005481565b6001602052806000526040600020600091509050806000015490806001018054600181600116156101000203166002900480601f0160208091040260200160405190810160405280929190818152602001828054600181600116156101000203166002900480156104df5780601f106104b4576101008083540402835291602001916104df565b820191906000526020600020905b8154815290600101906020018083116104c257829003601f168201915b505050505090806002018054600181600116156101000203166002900480601f01602080910402602001604051908101604052809291908181526020018280546001816001161561010002031660029004801561057d5780601f106105525761010080835404028352916020019161057d565b820191906000526020600020905b81548152906001019060200180831161056057829003601f168201915b505050505090806003018054600181600116156101000203166002900480601f01602080910402602001604051908101604052809291908181526020018280546001816001161561010002031660029004801561061b5780601f106105f05761010080835404028352916020019161061b565b820191906000526020600020905b8154815290600101906020018083116105fe57829003601f168201915b5050505050908060040160009054906101000a900460ff16905085565b600080815480929190600101919050555060a060405190810160405280600054815260200185815260200184815260200183815260200182151581525060016000805481526020019081526020016000206000820151816000015560208201518160010190805190602001906106af929190610713565b5060408201518160020190805190602001906106cc929190610713565b5060608201518160030190805190602001906106e9929190610713565b5060808201518160040160006101000a81548160ff02191690831515021790555090505050505050565b828054600181600116156101000203166002900490600052602060002090601f016020900481019282601f1061075457805160ff1916838001178555610782565b82800160010185558215610782579182015b82811115610781578251825591602001919060010190610766565b5b50905061078f9190610793565b5090565b6107b591905b808211156107b1576000816000905550600101610799565b5090565b9056fea165627a7a72305820f4cdd5d2d0fca5cac5ff19f342e14bf01af00c2ac4884ffd3c1698e72cc9ff720029",
  "source": "pragma solidity ^0.5.0;\n\ncontract Profile {\n  uint256 public userCount = 0;\n\n  struct User {\n    uint256 id;\n    string name;\n    string role;\n    string profileImg;\n    bool isRegistered;\n  }\n\n  mapping(uint256 => User) public usersById;\n\n  constructor() public {\n    createUser(\n      'Milecia',\n      'admin',\n      'https://res.cloudinary.com/milecia/image/upload/v1624811825/beach-360_p6u08j.jpg',\n      true\n    );\n  }\n\n  function createUser(\n    string memory _name,\n    string memory _role,\n    string memory _profileImg,\n    bool _isRegistered\n  ) public {\n    userCount++;\n\n    usersById[userCount] = User(\n      userCount,\n      _name,\n      _role,\n      _profileImg,\n      _isRegistered\n    );\n  }\n}\n",
  "sourcePath": "/Users/milecia/Repos/redwood_stuff/blog-examples/user-profile-dapp/web/contracts/Profile.sol",
  "compiler": {
    "name": "solc",
    "version": "0.5.0+commit.1d4f565a.Emscripten.clang"
  },
  "schemaVersion": "3.0.1",
  "updatedAt": "2021-11-01T15:45:43.719Z",
  "devdoc": {
    "methods": {}
  },
  "userdoc": {
    "methods": {}
  }
}