{
  "contractName": "Profile",
  "abi": [
    {
      "constant": true,
      "inputs": [],
      "name": "userCount",
      "outputs": [
        {
          "name": "",
          "type": "uint256"
        }
      ],
      "payable": false,
      "stateMutability": "view",
      "type": "function",
      "signature": "0x07973ccf"
    },
    {
      "constant": true,
      "inputs": [
        {
          "name": "",
          "type": "uint256"
        }
      ],
      "name": "usersById",
      "outputs": [
        {
          "name": "id",
          "type": "uint256"
        },
        {
          "name": "name",
          "type": "string"
        },
        {
          "name": "role",
          "type": "string"
        },
        {
          "name": "profileImg",
          "type": "string"
        },
        {
          "name": "isRegistered",
          "type": "bool"
        }
      ],
      "payable": false,
      "stateMutability": "view",
      "type": "function",
      "signature": "0x426b5382"
    },
    {
      "constant": true,
      "inputs": [
        {
          "name": "",
          "type": "address"
        }
      ],
      "name": "usersByAddress",
      "outputs": [
        {
          "name": "id",
          "type": "uint256"
        },
        {
          "name": "name",
          "type": "string"
        },
        {
          "name": "role",
          "type": "string"
        },
        {
          "name": "profileImg",
          "type": "string"
        },
        {
          "name": "isRegistered",
          "type": "bool"
        }
      ],
      "payable": false,
      "stateMutability": "view",
      "type": "function",
      "signature": "0x6bf693c4"
    },
    {
      "inputs": [],
      "payable": false,
      "stateMutability": "nonpayable",
      "type": "constructor",
      "signature": "constructor"
    },
    {
      "anonymous": false,
      "inputs": [
        {
          "indexed": false,
          "name": "userId",
          "type": "uint256"
        },
        {
          "indexed": false,
          "name": "name",
          "type": "string"
        },
        {
          "indexed": false,
          "name": "profileImg",
          "type": "string"
        },
        {
          "indexed": false,
          "name": "role",
          "type": "string"
        }
      ],
      "name": "NewProfile",
      "type": "event",
      "signature": "0x12225c2549977681619cd7fc7e95a20e224e85d912926c995db1b10ffb4cfdeb"
    },
    {
      "constant": false,
      "inputs": [
        {
          "name": "_name",
          "type": "string"
        },
        {
          "name": "_role",
          "type": "string"
        },
        {
          "name": "_profileImg",
          "type": "string"
        },
        {
          "name": "_isRegistered",
          "type": "bool"
        }
      ],
      "name": "createUser",
      "outputs": [],
      "payable": false,
      "stateMutability": "nonpayable",
      "type": "function",
      "signature": "0xe4f3ad95"
    },
    {
      "constant": false,
      "inputs": [
        {
          "name": "_userId",
          "type": "uint256"
        },
        {
          "name": "_isRegistered",
          "type": "bool"
        }
      ],
      "name": "updateRegistration",
      "outputs": [],
      "payable": false,
      "stateMutability": "nonpayable",
      "type": "function",
      "signature": "0x29fb98b5"
    }
  ],
  "bytecode": "0x608060405260006001553480156200001657600080fd5b50336000806101000a81548173ffffffffffffffffffffffffffffffffffffffff021916908373ffffffffffffffffffffffffffffffffffffffff160217905550620001616040805190810160405280600781526020017f4d696c65636961000000000000000000000000000000000000000000000000008152506040805190810160405280600581526020017f61646d696e000000000000000000000000000000000000000000000000000000815250608060405190810160405280605e81526020017f68747470733a2f2f7265732e636c6f7564696e6172792e636f6d2f6d696c656381526020017f69612f766964656f2f75706c6f61642f635f7061642c685f3336302c775f343881526020017f302c715f37302c64755f31302f656c657068616e745f686572642e6d70340000815250600162000167640100000000026401000000009004565b620004ac565b60016000815480929190600101919050555060a0604051908101604052806001548152602001858152602001848152602001838152602001821515815250600260003373ffffffffffffffffffffffffffffffffffffffff1673ffffffffffffffffffffffffffffffffffffffff1681526020019081526020016000206000820151816000015560208201518160010190805190602001906200020c929190620003fd565b5060408201518160020190805190602001906200022b929190620003fd565b5060608201518160030190805190602001906200024a929190620003fd565b5060808201518160040160006101000a81548160ff0219169083151502179055509050507f12225c2549977681619cd7fc7e95a20e224e85d912926c995db1b10ffb4cfdeb60015485858560405180858152602001806020018060200180602001848103845287818151815260200191508051906020019080838360005b83811015620002e5578082015181840152602081019050620002c8565b50505050905090810190601f168015620003135780820380516001836020036101000a031916815260200191505b50848103835286818151815260200191508051906020019080838360005b838110156200034e57808201518184015260208101905062000331565b50505050905090810190601f1680156200037c5780820380516001836020036101000a031916815260200191505b50848103825285818151815260200191508051906020019080838360005b83811015620003b75780820151818401526020810190506200039a565b50505050905090810190601f168015620003e55780820380516001836020036101000a031916815260200191505b5097505050505050505060405180910390a150505050565b828054600181600116156101000203166002900490600052602060002090601f016020900481019282601f106200044057805160ff191683800117855562000471565b8280016001018555821562000471579182015b828111156200047057825182559160200191906001019062000453565b5b50905062000480919062000484565b5090565b620004a991905b80821115620004a55760008160009055506001016200048b565b5090565b90565b610ec880620004bc6000396000f3fe60806040526004361061006d576000357c0100000000000000000000000000000000000000000000000000000000900463ffffffff16806307973ccf1461007257806329fb98b51461009d578063426b5382146100e45780636bf693c414610282578063e4f3ad9514610436575b600080fd5b34801561007e57600080fd5b50610087610638565b6040518082815260200191505060405180910390f35b3480156100a957600080fd5b506100e2600480360360408110156100c057600080fd5b810190808035906020019092919080351515906020019092919050505061063e565b005b3480156100f057600080fd5b5061011d6004803603602081101561010757600080fd5b810190808035906020019092919050505061075a565b6040518086815260200180602001806020018060200185151515158152602001848103845288818151815260200191508051906020019080838360005b8381101561017557808201518184015260208101905061015a565b50505050905090810190601f1680156101a25780820380516001836020036101000a031916815260200191505b50848103835287818151815260200191508051906020019080838360005b838110156101db5780820151818401526020810190506101c0565b50505050905090810190601f1680156102085780820380516001836020036101000a031916815260200191505b50848103825286818151815260200191508051906020019080838360005b83811015610241578082015181840152602081019050610226565b50505050905090810190601f16801561026e5780820380516001836020036101000a031916815260200191505b509850505050505050505060405180910390f35b34801561028e57600080fd5b506102d1600480360360208110156102a557600080fd5b81019080803573ffffffffffffffffffffffffffffffffffffffff169060200190929190505050610965565b6040518086815260200180602001806020018060200185151515158152602001848103845288818151815260200191508051906020019080838360005b8381101561032957808201518184015260208101905061030e565b50505050905090810190601f1680156103565780820380516001836020036101000a031916815260200191505b50848103835287818151815260200191508051906020019080838360005b8381101561038f578082015181840152602081019050610374565b50505050905090810190601f1680156103bc5780820380516001836020036101000a031916815260200191505b50848103825286818151815260200191508051906020019080838360005b838110156103f55780820151818401526020810190506103da565b50505050905090810190601f1680156104225780820380516001836020036101000a031916815260200191505b509850505050505050505060405180910390f35b34801561044257600080fd5b506106366004803603608081101561045957600080fd5b810190808035906020019064010000000081111561047657600080fd5b82018360208201111561048857600080fd5b803590602001918460018302840111640100000000831117156104aa57600080fd5b91908080601f016020809104026020016040519081016040528093929190818152602001838380828437600081840152601f19601f8201169050808301925050505050505091929192908035906020019064010000000081111561050d57600080fd5b82018360208201111561051f57600080fd5b8035906020019184600183028401116401000000008311171561054157600080fd5b91908080601f016020809104026020016040519081016040528093929190818152602001838380828437600081840152601f19601f820116905080830192505050505050509192919290803590602001906401000000008111156105a457600080fd5b8201836020820111156105b657600080fd5b803590602001918460018302840111640100000000831117156105d857600080fd5b91908080601f016020809104026020016040519081016040528093929190818152602001838380828437600081840152601f19601f820116905080830192505050505050509192919290803515159060200190929190505050610b70565b005b60015481565b6000809054906101000a900473ffffffffffffffffffffffffffffffffffffffff1673ffffffffffffffffffffffffffffffffffffffff163373ffffffffffffffffffffffffffffffffffffffff16141515610728576040517f08c379a00000000000000000000000000000000000000000000000000000000081526004018080602001828103825260278152602001807f4f6e6c7920746865206f776e65722063616e206368616e67652072656769737481526020017f726174696f6e2e0000000000000000000000000000000000000000000000000081525060400191505060405180910390fd5b806003600084815260200190815260200160002060040160006101000a81548160ff0219169083151502179055505050565b6003602052806000526040600020600091509050806000015490806001018054600181600116156101000203166002900480601f01602080910402602001604051908101604052809291908181526020018280546001816001161561010002031660029004801561080c5780601f106107e15761010080835404028352916020019161080c565b820191906000526020600020905b8154815290600101906020018083116107ef57829003601f168201915b505050505090806002018054600181600116156101000203166002900480601f0160208091040260200160405190810160405280929190818152602001828054600181600116156101000203166002900480156108aa5780601f1061087f576101008083540402835291602001916108aa565b820191906000526020600020905b81548152906001019060200180831161088d57829003601f168201915b505050505090806003018054600181600116156101000203166002900480601f0160208091040260200160405190810160405280929190818152602001828054600181600116156101000203166002900480156109485780601f1061091d57610100808354040283529160200191610948565b820191906000526020600020905b81548152906001019060200180831161092b57829003601f168201915b5050505050908060040160009054906101000a900460ff16905085565b6002602052806000526040600020600091509050806000015490806001018054600181600116156101000203166002900480601f016020809104026020016040519081016040528092919081815260200182805460018160011615610100020316600290048015610a175780601f106109ec57610100808354040283529160200191610a17565b820191906000526020600020905b8154815290600101906020018083116109fa57829003601f168201915b505050505090806002018054600181600116156101000203166002900480601f016020809104026020016040519081016040528092919081815260200182805460018160011615610100020316600290048015610ab55780601f10610a8a57610100808354040283529160200191610ab5565b820191906000526020600020905b815481529060010190602001808311610a9857829003601f168201915b505050505090806003018054600181600116156101000203166002900480601f016020809104026020016040519081016040528092919081815260200182805460018160011615610100020316600290048015610b535780601f10610b2857610100808354040283529160200191610b53565b820191906000526020600020905b815481529060010190602001808311610b3657829003601f168201915b5050505050908060040160009054906101000a900460ff16905085565b60016000815480929190600101919050555060a0604051908101604052806001548152602001858152602001848152602001838152602001821515815250600260003373ffffffffffffffffffffffffffffffffffffffff1673ffffffffffffffffffffffffffffffffffffffff168152602001908152602001600020600082015181600001556020820151816001019080519060200190610c13929190610df7565b506040820151816002019080519060200190610c30929190610df7565b506060820151816003019080519060200190610c4d929190610df7565b5060808201518160040160006101000a81548160ff0219169083151502179055509050507f12225c2549977681619cd7fc7e95a20e224e85d912926c995db1b10ffb4cfdeb60015485858560405180858152602001806020018060200180602001848103845287818151815260200191508051906020019080838360005b83811015610ce6578082015181840152602081019050610ccb565b50505050905090810190601f168015610d135780820380516001836020036101000a031916815260200191505b50848103835286818151815260200191508051906020019080838360005b83811015610d4c578082015181840152602081019050610d31565b50505050905090810190601f168015610d795780820380516001836020036101000a031916815260200191505b50848103825285818151815260200191508051906020019080838360005b83811015610db2578082015181840152602081019050610d97565b50505050905090810190601f168015610ddf5780820380516001836020036101000a031916815260200191505b5097505050505050505060405180910390a150505050565b828054600181600116156101000203166002900490600052602060002090601f016020900481019282601f10610e3857805160ff1916838001178555610e66565b82800160010185558215610e66579182015b82811115610e65578251825591602001919060010190610e4a565b5b509050610e739190610e77565b5090565b610e9991905b80821115610e95576000816000905550600101610e7d565b5090565b9056fea165627a7a723058209332e1c2821267be3139c9af37748e30ec9a725f6b4a049e1b9b4fd63584cf2e0029",
  "source": "pragma solidity ^0.5.0;\n\ncontract Profile {\n  address private _owner;\n  uint256 public userCount = 0;\n\n  event NewProfile(uint256 userId, string name, string profileImg, string role);\n\n  struct User {\n    uint256 id;\n    string name;\n    string role;\n    string profileImg;\n    bool isRegistered;\n  }\n\n  mapping(address => User) public usersByAddress;\n  mapping(uint256 => User) public usersById;\n\n  constructor() public {\n    _owner = msg.sender;\n\n    createUser(\n      'Milecia',\n      'admin',\n      'https://res.cloudinary.com/milecia/video/upload/c_pad,h_360,w_480,q_70,du_10/elephant_herd.mp4',\n      true\n    );\n  }\n\n  function createUser(\n    string memory _name,\n    string memory _role,\n    string memory _profileImg,\n    bool _isRegistered\n  ) public {\n    userCount++;\n\n    usersByAddress[msg.sender] = User(\n      userCount,\n      _name,\n      _role,\n      _profileImg,\n      _isRegistered\n    );\n\n    emit NewProfile(userCount, _name, _role, _profileImg);\n  }\n\n  // Check if user is the contract owner\n  function _isOwner(address _address) private view returns (bool isOwner) {\n    if (_owner == _address) {\n      return true;\n    }\n    return false;\n  }\n\n  // Allow the owner to chaange registration status\n  function updateRegistration(uint256 _userId, bool _isRegistered) public {\n    require(msg.sender == _owner, 'Only the owner can change registration.');\n    usersById[_userId].isRegistered = _isRegistered;\n  }\n}\n",
  "sourcePath": "/Users/milecia/Repos/redwood_stuff/blog-examples/user-profile-dapp/web/contracts/Profile.sol",
  "compiler": {
    "name": "solc",
    "version": "0.5.0+commit.1d4f565a.Emscripten.clang"
  },
  "schemaVersion": "3.0.1",
  "updatedAt": "2021-10-29T14:49:05.717Z",
  "devdoc": {
    "methods": {}
  },
  "userdoc": {
    "methods": {}
  }
}