{
  "contractName": "Profile",
  "abi": [
    {
      "constant": true,
      "inputs": [],
      "name": "userCount",
      "outputs": [
        {
          "name": "",
          "type": "uint256"
        }
      ],
      "payable": false,
      "stateMutability": "view",
      "type": "function",
      "signature": "0x07973ccf"
    },
    {
      "constant": true,
      "inputs": [
        {
          "name": "",
          "type": "uint256"
        }
      ],
      "name": "usersById",
      "outputs": [
        {
          "name": "id",
          "type": "uint256"
        },
        {
          "name": "name",
          "type": "string"
        },
        {
          "name": "role",
          "type": "string"
        },
        {
          "name": "profileImg",
          "type": "string"
        },
        {
          "name": "isRegistered",
          "type": "bool"
        }
      ],
      "payable": false,
      "stateMutability": "view",
      "type": "function",
      "signature": "0x426b5382"
    },
    {
      "constant": true,
      "inputs": [
        {
          "name": "",
          "type": "uint256"
        }
      ],
      "name": "addressById",
      "outputs": [
        {
          "name": "",
          "type": "address"
        }
      ],
      "payable": false,
      "stateMutability": "view",
      "type": "function",
      "signature": "0x87d3a024"
    },
    {
      "inputs": [],
      "payable": false,
      "stateMutability": "nonpayable",
      "type": "constructor",
      "signature": "constructor"
    },
    {
      "anonymous": false,
      "inputs": [
        {
          "indexed": false,
          "name": "userId",
          "type": "uint256"
        },
        {
          "indexed": false,
          "name": "name",
          "type": "string"
        },
        {
          "indexed": false,
          "name": "profileImg",
          "type": "string"
        },
        {
          "indexed": false,
          "name": "role",
          "type": "string"
        }
      ],
      "name": "NewProfile",
      "type": "event",
      "signature": "0x12225c2549977681619cd7fc7e95a20e224e85d912926c995db1b10ffb4cfdeb"
    },
    {
      "constant": false,
      "inputs": [
        {
          "name": "_name",
          "type": "string"
        },
        {
          "name": "_role",
          "type": "string"
        },
        {
          "name": "_profileImg",
          "type": "string"
        },
        {
          "name": "_isRegistered",
          "type": "bool"
        }
      ],
      "name": "createUser",
      "outputs": [],
      "payable": false,
      "stateMutability": "nonpayable",
      "type": "function",
      "signature": "0xe4f3ad95"
    },
    {
      "constant": false,
      "inputs": [
        {
          "name": "_userId",
          "type": "uint256"
        },
        {
          "name": "_isRegistered",
          "type": "bool"
        }
      ],
      "name": "updateRegistration",
      "outputs": [],
      "payable": false,
      "stateMutability": "nonpayable",
      "type": "function",
      "signature": "0x29fb98b5"
    }
  ],
  "bytecode": "0x608060405260006001553480156200001657600080fd5b50336000806101000a81548173ffffffffffffffffffffffffffffffffffffffff021916908373ffffffffffffffffffffffffffffffffffffffff160217905550620001616040805190810160405280600781526020017f4d696c65636961000000000000000000000000000000000000000000000000008152506040805190810160405280600581526020017f61646d696e000000000000000000000000000000000000000000000000000000815250608060405190810160405280605e81526020017f68747470733a2f2f7265732e636c6f7564696e6172792e636f6d2f6d696c656381526020017f69612f766964656f2f75706c6f61642f635f7061642c685f3336302c775f343881526020017f302c715f37302c64755f31302f656c657068616e745f686572642e6d70340000815250600162000167640100000000026401000000009004565b620004d6565b60016000815480929190600101919050555060a0604051908101604052806001548152602001858152602001848152602001838152602001821515815250600260006001548152602001908152602001600020600082015181600001556020820151816001019080519060200190620001e292919062000427565b5060408201518160020190805190602001906200020192919062000427565b5060608201518160030190805190602001906200022092919062000427565b5060808201518160040160006101000a81548160ff0219169083151502179055509050503360036000600154815260200190815260200160002060006101000a81548173ffffffffffffffffffffffffffffffffffffffff021916908373ffffffffffffffffffffffffffffffffffffffff1602179055507f12225c2549977681619cd7fc7e95a20e224e85d912926c995db1b10ffb4cfdeb60015485858560405180858152602001806020018060200180602001848103845287818151815260200191508051906020019080838360005b838110156200030f578082015181840152602081019050620002f2565b50505050905090810190601f1680156200033d5780820380516001836020036101000a031916815260200191505b50848103835286818151815260200191508051906020019080838360005b83811015620003785780820151818401526020810190506200035b565b50505050905090810190601f168015620003a65780820380516001836020036101000a031916815260200191505b50848103825285818151815260200191508051906020019080838360005b83811015620003e1578082015181840152602081019050620003c4565b50505050905090810190601f1680156200040f5780820380516001836020036101000a031916815260200191505b5097505050505050505060405180910390a150505050565b828054600181600116156101000203166002900490600052602060002090601f016020900481019282601f106200046a57805160ff19168380011785556200049b565b828001600101855582156200049b579182015b828111156200049a5782518255916020019190600101906200047d565b5b509050620004aa9190620004ae565b5090565b620004d391905b80821115620004cf576000816000905550600101620004b5565b5090565b90565b610be180620004e66000396000f3fe60806040526004361061006d576000357c0100000000000000000000000000000000000000000000000000000000900463ffffffff16806307973ccf1461007257806329fb98b51461009d578063426b5382146100e457806387d3a02414610282578063e4f3ad95146102fd575b600080fd5b34801561007e57600080fd5b506100876104ff565b6040518082815260200191505060405180910390f35b3480156100a957600080fd5b506100e2600480360360408110156100c057600080fd5b8101908080359060200190929190803515159060200190929190505050610505565b005b3480156100f057600080fd5b5061011d6004803603602081101561010757600080fd5b8101908080359060200190929190505050610621565b6040518086815260200180602001806020018060200185151515158152602001848103845288818151815260200191508051906020019080838360005b8381101561017557808201518184015260208101905061015a565b50505050905090810190601f1680156101a25780820380516001836020036101000a031916815260200191505b50848103835287818151815260200191508051906020019080838360005b838110156101db5780820151818401526020810190506101c0565b50505050905090810190601f1680156102085780820380516001836020036101000a031916815260200191505b50848103825286818151815260200191508051906020019080838360005b83811015610241578082015181840152602081019050610226565b50505050905090810190601f16801561026e5780820380516001836020036101000a031916815260200191505b509850505050505050505060405180910390f35b34801561028e57600080fd5b506102bb600480360360208110156102a557600080fd5b810190808035906020019092919050505061082c565b604051808273ffffffffffffffffffffffffffffffffffffffff1673ffffffffffffffffffffffffffffffffffffffff16815260200191505060405180910390f35b34801561030957600080fd5b506104fd6004803603608081101561032057600080fd5b810190808035906020019064010000000081111561033d57600080fd5b82018360208201111561034f57600080fd5b8035906020019184600183028401116401000000008311171561037157600080fd5b91908080601f016020809104026020016040519081016040528093929190818152602001838380828437600081840152601f19601f820116905080830192505050505050509192919290803590602001906401000000008111156103d457600080fd5b8201836020820111156103e657600080fd5b8035906020019184600183028401116401000000008311171561040857600080fd5b91908080601f016020809104026020016040519081016040528093929190818152602001838380828437600081840152601f19601f8201169050808301925050505050505091929192908035906020019064010000000081111561046b57600080fd5b82018360208201111561047d57600080fd5b8035906020019184600183028401116401000000008311171561049f57600080fd5b91908080601f016020809104026020016040519081016040528093929190818152602001838380828437600081840152601f19601f82011690508083019250505050505050919291929080351515906020019092919050505061085f565b005b60015481565b6000809054906101000a900473ffffffffffffffffffffffffffffffffffffffff1673ffffffffffffffffffffffffffffffffffffffff163373ffffffffffffffffffffffffffffffffffffffff161415156105ef576040517f08c379a00000000000000000000000000000000000000000000000000000000081526004018080602001828103825260278152602001807f4f6e6c7920746865206f776e65722063616e206368616e67652072656769737481526020017f726174696f6e2e0000000000000000000000000000000000000000000000000081525060400191505060405180910390fd5b806002600084815260200190815260200160002060040160006101000a81548160ff0219169083151502179055505050565b6002602052806000526040600020600091509050806000015490806001018054600181600116156101000203166002900480601f0160208091040260200160405190810160405280929190818152602001828054600181600116156101000203166002900480156106d35780601f106106a8576101008083540402835291602001916106d3565b820191906000526020600020905b8154815290600101906020018083116106b657829003601f168201915b505050505090806002018054600181600116156101000203166002900480601f0160208091040260200160405190810160405280929190818152602001828054600181600116156101000203166002900480156107715780601f1061074657610100808354040283529160200191610771565b820191906000526020600020905b81548152906001019060200180831161075457829003601f168201915b505050505090806003018054600181600116156101000203166002900480601f01602080910402602001604051908101604052809291908181526020018280546001816001161561010002031660029004801561080f5780601f106107e45761010080835404028352916020019161080f565b820191906000526020600020905b8154815290600101906020018083116107f257829003601f168201915b5050505050908060040160009054906101000a900460ff16905085565b60036020528060005260406000206000915054906101000a900473ffffffffffffffffffffffffffffffffffffffff1681565b60016000815480929190600101919050555060a06040519081016040528060015481526020018581526020018481526020018381526020018215158152506002600060015481526020019081526020016000206000820151816000015560208201518160010190805190602001906108d8929190610b10565b5060408201518160020190805190602001906108f5929190610b10565b506060820151816003019080519060200190610912929190610b10565b5060808201518160040160006101000a81548160ff0219169083151502179055509050503360036000600154815260200190815260200160002060006101000a81548173ffffffffffffffffffffffffffffffffffffffff021916908373ffffffffffffffffffffffffffffffffffffffff1602179055507f12225c2549977681619cd7fc7e95a20e224e85d912926c995db1b10ffb4cfdeb60015485858560405180858152602001806020018060200180602001848103845287818151815260200191508051906020019080838360005b838110156109ff5780820151818401526020810190506109e4565b50505050905090810190601f168015610a2c5780820380516001836020036101000a031916815260200191505b50848103835286818151815260200191508051906020019080838360005b83811015610a65578082015181840152602081019050610a4a565b50505050905090810190601f168015610a925780820380516001836020036101000a031916815260200191505b50848103825285818151815260200191508051906020019080838360005b83811015610acb578082015181840152602081019050610ab0565b50505050905090810190601f168015610af85780820380516001836020036101000a031916815260200191505b5097505050505050505060405180910390a150505050565b828054600181600116156101000203166002900490600052602060002090601f016020900481019282601f10610b5157805160ff1916838001178555610b7f565b82800160010185558215610b7f579182015b82811115610b7e578251825591602001919060010190610b63565b5b509050610b8c9190610b90565b5090565b610bb291905b80821115610bae576000816000905550600101610b96565b5090565b9056fea165627a7a723058208e34eef5f5b30c2a84a99ab81151bbd626b4b9a4f4cd05ee966941816c5183020029",
  "source": "pragma solidity ^0.5.0;\n\ncontract Profile {\n  address private _owner;\n  uint256 public userCount = 0;\n\n  event NewProfile(uint256 userId, string name, string profileImg, string role);\n\n  struct User {\n    uint256 id;\n    string name;\n    string role;\n    string profileImg;\n    bool isRegistered;\n  }\n\n  mapping(uint256 => User) public usersById;\n  mapping(uint256 => address) public addressById;\n\n  constructor() public {\n    _owner = msg.sender;\n\n    createUser(\n      'Milecia',\n      'admin',\n      'https://res.cloudinary.com/milecia/video/upload/c_pad,h_360,w_480,q_70,du_10/elephant_herd.mp4',\n      true\n    );\n  }\n\n  // Check if user is the contract owner\n  function _isOwner(address _address) private view returns (bool isOwner) {\n    if (_owner == _address) {\n      return true;\n    }\n    return false;\n  }\n\n  function createUser(\n    string memory _name,\n    string memory _role,\n    string memory _profileImg,\n    bool _isRegistered\n  ) public {\n    userCount++;\n\n    usersById[userCount] = User(\n      userCount,\n      _name,\n      _role,\n      _profileImg,\n      _isRegistered\n    );\n\n    addressById[userCount] = msg.sender;\n\n    emit NewProfile(userCount, _name, _role, _profileImg);\n  }\n\n  // Allow the owner to chaange registration status\n  function updateRegistration(uint256 _userId, bool _isRegistered) public {\n    require(msg.sender == _owner, 'Only the owner can change registration.');\n    usersById[_userId].isRegistered = _isRegistered;\n  }\n}\n",
  "sourcePath": "/Users/milecia/Repos/redwood_stuff/blog-examples/user-profile-dapp/web/contracts/Profile.sol",
  "compiler": {
    "name": "solc",
    "version": "0.5.0+commit.1d4f565a.Emscripten.clang"
  },
  "schemaVersion": "3.0.1",
  "updatedAt": "2021-10-30T01:24:53.762Z",
  "devdoc": {
    "methods": {}
  },
  "userdoc": {
    "methods": {}
  }
}