{
  "contractName": "Profile",
  "abi": [
    {
      "inputs": [],
      "stateMutability": "nonpayable",
      "type": "constructor"
    },
    {
      "inputs": [],
      "name": "userCount",
      "outputs": [
        {
          "internalType": "uint256",
          "name": "",
          "type": "uint256"
        }
      ],
      "stateMutability": "view",
      "type": "function",
      "constant": true
    },
    {
      "inputs": [
        {
          "internalType": "uint256",
          "name": "",
          "type": "uint256"
        }
      ],
      "name": "users",
      "outputs": [
        {
          "internalType": "uint256",
          "name": "id",
          "type": "uint256"
        },
        {
          "internalType": "string",
          "name": "name",
          "type": "string"
        },
        {
          "internalType": "string",
          "name": "role",
          "type": "string"
        },
        {
          "internalType": "string",
          "name": "profileImg",
          "type": "string"
        },
        {
          "internalType": "bool",
          "name": "isRegistered",
          "type": "bool"
        }
      ],
      "stateMutability": "view",
      "type": "function",
      "constant": true
    },
    {
      "inputs": [
        {
          "internalType": "string",
          "name": "name",
          "type": "string"
        },
        {
          "internalType": "string",
          "name": "role",
          "type": "string"
        },
        {
          "internalType": "string",
          "name": "profileImg",
          "type": "string"
        },
        {
          "internalType": "bool",
          "name": "isRegistered",
          "type": "bool"
        }
      ],
      "name": "createUser",
      "outputs": [],
      "stateMutability": "nonpayable",
      "type": "function"
    }
  ],
  "bytecode": "0x6080604052600080553480156200001557600080fd5b50620000ae6040518060400160405280600781526020017f4d696c65636961000000000000000000000000000000000000000000000000008152506040518060400160405280600581526020017f61646d696e0000000000000000000000000000000000000000000000000000008152506040518060800160405280605e815260200162000bf2605e91396001620000b460201b60201c565b62000338565b600080815480929190620000c8906200028c565b91905055506040518060a0016040528060005481526020018581526020018481526020018381526020018215158152506001600080548152602001908152602001600020600082015181600001556020820151816001019080519060200190620001349291906200019c565b506040820151816002019080519060200190620001539291906200019c565b506060820151816003019080519060200190620001729291906200019c565b5060808201518160040160006101000a81548160ff02191690831515021790555090505050505050565b828054620001aa9062000256565b90600052602060002090601f016020900481019282620001ce57600085556200021a565b82601f10620001e957805160ff19168380011785556200021a565b828001600101855582156200021a579182015b8281111562000219578251825591602001919060010190620001fc565b5b5090506200022991906200022d565b5090565b5b80821115620002485760008160009055506001016200022e565b5090565b6000819050919050565b600060028204905060018216806200026f57607f821691505b6020821081141562000286576200028562000309565b5b50919050565b600062000299826200024c565b91507fffffffffffffffffffffffffffffffffffffffffffffffffffffffffffffffff821415620002cf57620002ce620002da565b5b600182019050919050565b7f4e487b7100000000000000000000000000000000000000000000000000000000600052601160045260246000fd5b7f4e487b7100000000000000000000000000000000000000000000000000000000600052602260045260246000fd5b6108aa80620003486000396000f3fe608060405234801561001057600080fd5b50600436106100415760003560e01c806307973ccf14610046578063365b98b214610064578063e4f3ad9514610098575b600080fd5b61004e6100b4565b60405161005b91906105d5565b60405180910390f35b61007e60048036038101906100799190610555565b6100ba565b60405161008f9594939291906105f0565b60405180910390f35b6100b260048036038101906100ad91906104aa565b610295565b005b60005481565b60016020528060005260406000206000915090508060000154908060010180546100e39061072d565b80601f016020809104026020016040519081016040528092919081815260200182805461010f9061072d565b801561015c5780601f106101315761010080835404028352916020019161015c565b820191906000526020600020905b81548152906001019060200180831161013f57829003601f168201915b5050505050908060020180546101719061072d565b80601f016020809104026020016040519081016040528092919081815260200182805461019d9061072d565b80156101ea5780601f106101bf576101008083540402835291602001916101ea565b820191906000526020600020905b8154815290600101906020018083116101cd57829003601f168201915b5050505050908060030180546101ff9061072d565b80601f016020809104026020016040519081016040528092919081815260200182805461022b9061072d565b80156102785780601f1061024d57610100808354040283529160200191610278565b820191906000526020600020905b81548152906001019060200180831161025b57829003601f168201915b5050505050908060040160009054906101000a900460ff16905085565b6000808154809291906102a79061075f565b91905055506040518060a0016040528060005481526020018581526020018481526020018381526020018215158152506001600080548152602001908152602001600020600082015181600001556020820151816001019080519060200190610311929190610375565b50604082015181600201908051906020019061032e929190610375565b50606082015181600301908051906020019061034b929190610375565b5060808201518160040160006101000a81548160ff02191690831515021790555090505050505050565b8280546103819061072d565b90600052602060002090601f0160209004810192826103a357600085556103ea565b82601f106103bc57805160ff19168380011785556103ea565b828001600101855582156103ea579182015b828111156103e95782518255916020019190600101906103ce565b5b5090506103f791906103fb565b5090565b5b808211156104145760008160009055506001016103fc565b5090565b600061042b61042684610689565b610658565b90508281526020810184848401111561044357600080fd5b61044e8482856106eb565b509392505050565b60008135905061046581610846565b92915050565b600082601f83011261047c57600080fd5b813561048c848260208601610418565b91505092915050565b6000813590506104a48161085d565b92915050565b600080600080608085870312156104c057600080fd5b600085013567ffffffffffffffff8111156104da57600080fd5b6104e68782880161046b565b945050602085013567ffffffffffffffff81111561050357600080fd5b61050f8782880161046b565b935050604085013567ffffffffffffffff81111561052c57600080fd5b6105388782880161046b565b925050606061054987828801610456565b91505092959194509250565b60006020828403121561056757600080fd5b600061057584828501610495565b91505092915050565b610587816106d5565b82525050565b6000610598826106b9565b6105a281856106c4565b93506105b28185602086016106fa565b6105bb81610835565b840191505092915050565b6105cf816106e1565b82525050565b60006020820190506105ea60008301846105c6565b92915050565b600060a08201905061060560008301886105c6565b8181036020830152610617818761058d565b9050818103604083015261062b818661058d565b9050818103606083015261063f818561058d565b905061064e608083018461057e565b9695505050505050565b6000604051905081810181811067ffffffffffffffff8211171561067f5761067e610806565b5b8060405250919050565b600067ffffffffffffffff8211156106a4576106a3610806565b5b601f19601f8301169050602081019050919050565b600081519050919050565b600082825260208201905092915050565b60008115159050919050565b6000819050919050565b82818337600083830152505050565b60005b838110156107185780820151818401526020810190506106fd565b83811115610727576000848401525b50505050565b6000600282049050600182168061074557607f821691505b60208210811415610759576107586107d7565b5b50919050565b600061076a826106e1565b91507fffffffffffffffffffffffffffffffffffffffffffffffffffffffffffffffff82141561079d5761079c6107a8565b5b600182019050919050565b7f4e487b7100000000000000000000000000000000000000000000000000000000600052601160045260246000fd5b7f4e487b7100000000000000000000000000000000000000000000000000000000600052602260045260246000fd5b7f4e487b7100000000000000000000000000000000000000000000000000000000600052604160045260246000fd5b6000601f19601f8301169050919050565b61084f816106d5565b811461085a57600080fd5b50565b610866816106e1565b811461087157600080fd5b5056fea2646970667358221220588dbf16003c8a53f9e4d312d4fcce4f10c0b245ee91e85e24d10fd7d267733e64736f6c6343000800003368747470733a2f2f7265732e636c6f7564696e6172792e636f6d2f6d696c656369612f766964656f2f75706c6f61642f635f7061642c685f3336302c775f3438302c715f37302c64755f31302f656c657068616e745f686572642e6d7034",
  "immutableReferences": {},
  "source": "pragma solidity ^0.8.0;\n\ncontract Profile {\n  uint256 public userCount = 0;\n\n  struct User {\n    uint256 id;\n    string name;\n    string role;\n    string profileImg;\n    bool isRegistered;\n  }\n\n  mapping(uint256 => User) public users;\n\n  constructor() public {\n    createUser(\n      'Milecia',\n      'admin',\n      'https://res.cloudinary.com/milecia/video/upload/c_pad,h_360,w_480,q_70,du_10/elephant_herd.mp4',\n      true\n    );\n  }\n\n  function createUser(\n    string memory name,\n    string memory role,\n    string memory profileImg,\n    bool isRegistered\n  ) public {\n    userCount ++;\n    users[userCount] = User(userCount, name, role, profileImg, isRegistered);\n  }\n}\n",
  "sourcePath": "C:/Users/meesh/repos/blog-examples/user-profile-dapp/web/contracts/Profile.sol",
  "compiler": {
    "name": "solc",
    "version": "0.8.0+commit.c7dfd78e.Emscripten.clang"
  },
  "schemaVersion": "3.2.3",
  "updatedAt": "2021-10-21T13:33:15.480Z",
  "networkType": "ethereum",
  "devdoc": {
    "kind": "dev",
    "methods": {},
    "version": 1
  },
  "userdoc": {
    "kind": "user",
    "methods": {},
    "version": 1
  }
}