{
  "contractName": "OrderMaker",
  "abi": [
    {
      "anonymous": false,
      "inputs": [
        {
          "indexed": false,
          "internalType": "uint256",
          "name": "orderId",
          "type": "uint256"
        },
        {
          "indexed": false,
          "internalType": "string",
          "name": "itemName",
          "type": "string"
        },
        {
          "indexed": false,
          "internalType": "uint256",
          "name": "price",
          "type": "uint256"
        }
      ],
      "name": "NewOrder",
      "type": "event"
    },
    {
      "inputs": [
        {
          "internalType": "uint256",
          "name": "",
          "type": "uint256"
        }
      ],
      "name": "orders",
      "outputs": [
        {
          "internalType": "string",
          "name": "itemName",
          "type": "string"
        },
        {
          "internalType": "uint256",
          "name": "price",
          "type": "uint256"
        },
        {
          "internalType": "uint256",
          "name": "quantity",
          "type": "uint256"
        }
      ],
      "stateMutability": "view",
      "type": "function",
      "constant": true
    },
    {
      "inputs": [
        {
          "internalType": "uint256",
          "name": "",
          "type": "uint256"
        }
      ],
      "name": "ordersFromUser",
      "outputs": [
        {
          "internalType": "address",
          "name": "",
          "type": "address"
        }
      ],
      "stateMutability": "view",
      "type": "function",
      "constant": true
    },
    {
      "inputs": [
        {
          "internalType": "address",
          "name": "",
          "type": "address"
        }
      ],
      "name": "userOrderCount",
      "outputs": [
        {
          "internalType": "uint256",
          "name": "",
          "type": "uint256"
        }
      ],
      "stateMutability": "view",
      "type": "function",
      "constant": true
    },
    {
      "inputs": [
        {
          "internalType": "string",
          "name": "_itemName",
          "type": "string"
        },
        {
          "internalType": "uint256",
          "name": "_quantity",
          "type": "uint256"
        }
      ],
      "name": "createOrder",
      "outputs": [],
      "stateMutability": "nonpayable",
      "type": "function"
    }
  ],
  "bytecode": "0x608060405234801561001057600080fd5b50610d13806100206000396000f3fe608060405234801561001057600080fd5b506004361061004c5760003560e01c806361caab7f1461005157806397de706f14610081578063a85c38ef1461009d578063ec4eb4f9146100cf575b600080fd5b61006b60048036038101906100669190610647565b6100ff565b60405161007891906106b5565b60405180910390f35b61009b60048036038101906100969190610816565b610132565b005b6100b760048036038101906100b29190610647565b61014f565b6040516100c693929190610909565b60405180910390f35b6100e960048036038101906100e49190610973565b610211565b6040516100f691906109a0565b60405180910390f35b60016020528060005260406000206000915054906101000a900473ffffffffffffffffffffffffffffffffffffffff1681565b600061013d83610229565b905061014a8383836103a1565b505050565b6000818154811061015f57600080fd5b9060005260206000209060030201600091509050806000018054610182906109ea565b80601f01602080910402602001604051908101604052809291908181526020018280546101ae906109ea565b80156101fb5780601f106101d0576101008083540402835291602001916101fb565b820191906000526020600020905b8154815290600101906020018083116101de57829003601f168201915b5050505050908060010154908060020154905083565b60026020528060005260406000206000915090505481565b600060405160200161023a90610a73565b60405160208183030381529060405280519060200120826040516020016102619190610ab9565b604051602081830303815290604052805190602001201415610286576009905061039c565b60405160200161029590610b1c565b60405160208183030381529060405280519060200120826040516020016102bc9190610ab9565b6040516020818303038152906040528051906020012014156102e157600c905061039c565b6040516020016102f090610b7d565b60405160208183030381529060405280519060200120826040516020016103179190610ab9565b60405160208183030381529060405280519060200120141561033c576012905061039c565b60405160200161034b90610bde565b60405160208183030381529060405280519060200120826040516020016103729190610ab9565b60405160208183030381529060405280519060200120141561039757600f905061039c565b600590505b919050565b60006040518060600160405280858152602001838152602001848152509080600181540180825580915050600190039060005260206000209060030201600090919091909150600082015181600001908051906020019061040392919061055a565b50602082015181600101556040820151816002015550506000600160008054905061042e9190610c22565b9050336001600083815260200190815260200160002060006101000a81548173ffffffffffffffffffffffffffffffffffffffff021916908373ffffffffffffffffffffffffffffffffffffffff160217905550600260003373ffffffffffffffffffffffffffffffffffffffff1673ffffffffffffffffffffffffffffffffffffffff16815260200190815260200160002060008154809291906104d290610c56565b91905055600260003373ffffffffffffffffffffffffffffffffffffffff1673ffffffffffffffffffffffffffffffffffffffff168152602001908152602001600020819055507f259c921abca4850f591a4f6c2bb26564b6e363f6e1a47340f60ae5df3199cb4a81858460405161054c93929190610c9f565b60405180910390a150505050565b828054610566906109ea565b90600052602060002090601f01602090048101928261058857600085556105cf565b82601f106105a157805160ff19168380011785556105cf565b828001600101855582156105cf579182015b828111156105ce5782518255916020019190600101906105b3565b5b5090506105dc91906105e0565b5090565b5b808211156105f95760008160009055506001016105e1565b5090565b6000604051905090565b600080fd5b600080fd5b6000819050919050565b61062481610611565b811461062f57600080fd5b50565b6000813590506106418161061b565b92915050565b60006020828403121561065d5761065c610607565b5b600061066b84828501610632565b91505092915050565b600073ffffffffffffffffffffffffffffffffffffffff82169050919050565b600061069f82610674565b9050919050565b6106af81610694565b82525050565b60006020820190506106ca60008301846106a6565b92915050565b600080fd5b600080fd5b6000601f19601f8301169050919050565b7f4e487b7100000000000000000000000000000000000000000000000000000000600052604160045260246000fd5b610723826106da565b810181811067ffffffffffffffff82111715610742576107416106eb565b5b80604052505050565b60006107556105fd565b9050610761828261071a565b919050565b600067ffffffffffffffff821115610781576107806106eb565b5b61078a826106da565b9050602081019050919050565b82818337600083830152505050565b60006107b96107b484610766565b61074b565b9050828152602081018484840111156107d5576107d46106d5565b5b6107e0848285610797565b509392505050565b600082601f8301126107fd576107fc6106d0565b5b813561080d8482602086016107a6565b91505092915050565b6000806040838503121561082d5761082c610607565b5b600083013567ffffffffffffffff81111561084b5761084a61060c565b5b610857858286016107e8565b925050602061086885828601610632565b9150509250929050565b600081519050919050565b600082825260208201905092915050565b60005b838110156108ac578082015181840152602081019050610891565b838111156108bb576000848401525b50505050565b60006108cc82610872565b6108d6818561087d565b93506108e681856020860161088e565b6108ef816106da565b840191505092915050565b61090381610611565b82525050565b6000606082019050818103600083015261092381866108c1565b905061093260208301856108fa565b61093f60408301846108fa565b949350505050565b61095081610694565b811461095b57600080fd5b50565b60008135905061096d81610947565b92915050565b60006020828403121561098957610988610607565b5b60006109978482850161095e565b91505092915050565b60006020820190506109b560008301846108fa565b92915050565b7f4e487b7100000000000000000000000000000000000000000000000000000000600052602260045260246000fd5b60006002820490506001821680610a0257607f821691505b60208210811415610a1657610a156109bb565b5b50919050565b600081905092915050565b7f4a616c6170656e6f000000000000000000000000000000000000000000000000600082015250565b6000610a5d600883610a1c565b9150610a6882610a27565b600882019050919050565b6000610a7e82610a50565b9150819050919050565b6000610a9382610872565b610a9d8185610a1c565b9350610aad81856020860161088e565b80840191505092915050565b6000610ac58284610a88565b915081905092915050565b7f4665746100000000000000000000000000000000000000000000000000000000600082015250565b6000610b06600483610a1c565b9150610b1182610ad0565b600482019050919050565b6000610b2782610af9565b9150819050919050565b7f5761746572000000000000000000000000000000000000000000000000000000600082015250565b6000610b67600583610a1c565b9150610b7282610b31565b600582019050919050565b6000610b8882610b5a565b9150819050919050565b7f4c656d6f6e000000000000000000000000000000000000000000000000000000600082015250565b6000610bc8600583610a1c565b9150610bd382610b92565b600582019050919050565b6000610be982610bbb565b9150819050919050565b7f4e487b7100000000000000000000000000000000000000000000000000000000600052601160045260246000fd5b6000610c2d82610611565b9150610c3883610611565b925082821015610c4b57610c4a610bf3565b5b828203905092915050565b6000610c6182610611565b91507fffffffffffffffffffffffffffffffffffffffffffffffffffffffffffffffff821415610c9457610c93610bf3565b5b600182019050919050565b6000606082019050610cb460008301866108fa565b8181036020830152610cc681856108c1565b9050610cd560408301846108fa565b94935050505056fea264697066735822122042afcb76dc877fe0435f451151c3d7711763b048bba1a42dde51af0dda8e00c364736f6c63430008090033",
  "immutableReferences": {},
  "source": "pragma solidity 0.8.9;\n\ncontract OrderMaker {\n  event NewOrder(uint256 orderId, string itemName, uint256 price);\n\n  struct Order {\n    string itemName;\n    uint256 price;\n    uint256 quantity;\n  }\n\n  Order[] public orders;\n\n  // For each order id, we assign a user address\n  // Looks like: {1 : 0x9j01rf09j09f2w}\n  mapping(uint256 => address) public ordersFromUser;\n  mapping(address => uint256) public userOrderCount;\n\n  function _lookupPrice(string memory _itemName)\n    private\n    pure\n    returns (uint256 price)\n  {\n    if (\n      keccak256(abi.encodePacked(_itemName)) ==\n      keccak256(abi.encodePacked('Jalapeno'))\n    ) {\n      return 9;\n    } else if (\n      keccak256(abi.encodePacked(_itemName)) ==\n      keccak256(abi.encodePacked('Feta'))\n    ) {\n      return 12;\n    } else if (\n      keccak256(abi.encodePacked(_itemName)) ==\n      keccak256(abi.encodePacked('Water'))\n    ) {\n      return 18;\n    } else if (\n      keccak256(abi.encodePacked(_itemName)) ==\n      keccak256(abi.encodePacked('Lemon'))\n    ) {\n      return 15;\n    } else {\n      return 5;\n    }\n  }\n\n  function _createOrder(\n    string memory _itemName,\n    uint256 _quantity,\n    uint256 _price\n  ) internal {\n    orders.push(Order(_itemName, _price, _quantity));\n\n    uint256 id = orders.length - 1;\n\n    ordersFromUser[id] = msg.sender;\n\n    userOrderCount[msg.sender] = userOrderCount[msg.sender]++;\n\n    emit NewOrder(id, _itemName, _price);\n  }\n\n  // Allow anyone to create an order\n  function createOrder(string memory _itemName, uint256 _quantity) public {\n    uint256 itemPrice = _lookupPrice(_itemName);\n    _createOrder(_itemName, _quantity, itemPrice);\n  }\n}\n",
  "sourcePath": "C:/Users/meesh/repos/blog-examples/order-dapp/web/contracts/OrderMaker.sol",
  "compiler": {
    "name": "solc",
    "version": "0.8.9+commit.e5eed63a.Emscripten.clang"
  },
  "schemaVersion": "3.2.3",
  "updatedAt": "2021-10-25T01:10:14.699Z",
  "networkType": "ethereum",
  "devdoc": {
    "kind": "dev",
    "methods": {},
    "version": 1
  },
  "userdoc": {
    "kind": "user",
    "methods": {},
    "version": 1
  }
}