{
  "contractName": "Order",
  "abi": [
    {
      "inputs": [],
      "stateMutability": "nonpayable",
      "type": "constructor"
    },
    {
      "inputs": [
        {
          "internalType": "address",
          "name": "",
          "type": "address"
        }
      ],
      "name": "foodBalances",
      "outputs": [
        {
          "internalType": "uint256",
          "name": "",
          "type": "uint256"
        }
      ],
      "stateMutability": "view",
      "type": "function",
      "constant": true
    },
    {
      "inputs": [],
      "name": "owner",
      "outputs": [
        {
          "internalType": "address",
          "name": "",
          "type": "address"
        }
      ],
      "stateMutability": "view",
      "type": "function",
      "constant": true
    },
    {
      "inputs": [
        {
          "internalType": "uint256",
          "name": "amount",
          "type": "uint256"
        }
      ],
      "name": "increaseBalance",
      "outputs": [],
      "stateMutability": "nonpayable",
      "type": "function"
    },
    {
      "inputs": [
        {
          "internalType": "uint256",
          "name": "amount",
          "type": "uint256"
        }
      ],
      "name": "purchase",
      "outputs": [],
      "stateMutability": "payable",
      "type": "function",
      "payable": true
    }
  ],
  "bytecode": "0x608060405234801561001057600080fd5b50336000806101000a81548173ffffffffffffffffffffffffffffffffffffffff021916908373ffffffffffffffffffffffffffffffffffffffff16021790555060fa600160003073ffffffffffffffffffffffffffffffffffffffff1673ffffffffffffffffffffffffffffffffffffffff168152602001908152602001600020819055506107f2806100a56000396000f3fe60806040526004361061003f5760003560e01c80633e4ccb40146100445780638da5cb5b1461006d578063ea548ba614610098578063efef39a1146100d5575b600080fd5b34801561005057600080fd5b5061006b600480360381019061006691906103d6565b6100f1565b005b34801561007957600080fd5b506100826101d8565b60405161008f9190610444565b60405180910390f35b3480156100a457600080fd5b506100bf60048036038101906100ba919061048b565b6101fc565b6040516100cc91906104c7565b60405180910390f35b6100ef60048036038101906100ea91906103d6565b610214565b005b60008054906101000a900473ffffffffffffffffffffffffffffffffffffffff1673ffffffffffffffffffffffffffffffffffffffff163373ffffffffffffffffffffffffffffffffffffffff161461017f576040517f08c379a000000000000000000000000000000000000000000000000000000000815260040161017690610565565b60405180910390fd5b80600160003073ffffffffffffffffffffffffffffffffffffffff1673ffffffffffffffffffffffffffffffffffffffff16815260200190815260200160002060008282546101ce91906105b4565b9250508190555050565b60008054906101000a900473ffffffffffffffffffffffffffffffffffffffff1681565b60016020528060005260406000206000915090505481565b670de0b6b3a764000081610228919061060a565b34101561026a576040517f08c379a0000000000000000000000000000000000000000000000000000000008152600401610261906106d6565b60405180910390fd5b80600160003073ffffffffffffffffffffffffffffffffffffffff1673ffffffffffffffffffffffffffffffffffffffff1681526020019081526020016000205410156102ec576040517f08c379a00000000000000000000000000000000000000000000000000000000081526004016102e390610768565b60405180910390fd5b80600160003073ffffffffffffffffffffffffffffffffffffffff1673ffffffffffffffffffffffffffffffffffffffff168152602001908152602001600020600082825461033b9190610788565b9250508190555080600160003373ffffffffffffffffffffffffffffffffffffffff1673ffffffffffffffffffffffffffffffffffffffff168152602001908152602001600020600082825461039191906105b4565b9250508190555050565b600080fd5b6000819050919050565b6103b3816103a0565b81146103be57600080fd5b50565b6000813590506103d0816103aa565b92915050565b6000602082840312156103ec576103eb61039b565b5b60006103fa848285016103c1565b91505092915050565b600073ffffffffffffffffffffffffffffffffffffffff82169050919050565b600061042e82610403565b9050919050565b61043e81610423565b82525050565b60006020820190506104596000830184610435565b92915050565b61046881610423565b811461047357600080fd5b50565b6000813590506104858161045f565b92915050565b6000602082840312156104a1576104a061039b565b5b60006104af84828501610476565b91505092915050565b6104c1816103a0565b82525050565b60006020820190506104dc60008301846104b8565b92915050565b600082825260208201905092915050565b7f4f6e6c7920746865206f776e65722063616e20696e6372656173652062616c6160008201527f6e6163652e000000000000000000000000000000000000000000000000000000602082015250565b600061054f6025836104e2565b915061055a826104f3565b604082019050919050565b6000602082019050818103600083015261057e81610542565b9050919050565b7f4e487b7100000000000000000000000000000000000000000000000000000000600052601160045260246000fd5b60006105bf826103a0565b91506105ca836103a0565b9250827fffffffffffffffffffffffffffffffffffffffffffffffffffffffffffffffff038211156105ff576105fe610585565b5b828201905092915050565b6000610615826103a0565b9150610620836103a0565b9250817fffffffffffffffffffffffffffffffffffffffffffffffffffffffffffffffff048311821515161561065957610658610585565b5b828202905092915050565b7f596f75206d75737420706179206174206c65617374203120455448207065722060008201527f666f6f64207468696e672e000000000000000000000000000000000000000000602082015250565b60006106c0602b836104e2565b91506106cb82610664565b604082019050919050565b600060208201905081810360008301526106ef816106b3565b9050919050565b7f4e6f7420656e6f75676820666f6f6420696e2073746f636b20746f20636f6d7060008201527f6c65746520746869732070757263686173650000000000000000000000000000602082015250565b60006107526032836104e2565b915061075d826106f6565b604082019050919050565b6000602082019050818103600083015261078181610745565b9050919050565b6000610793826103a0565b915061079e836103a0565b9250828210156107b1576107b0610585565b5b82820390509291505056fea2646970667358221220b0b77241d2d2cb56282ecec9faf7a29537f2755c62228581c20816e1325044c564736f6c63430008090033",
  "immutableReferences": {},
  "source": "pragma solidity 0.8.9;\n\ncontract Order {\n\n    // Declare state variables of the contract\n    address public owner;\n    // This is how we associate the food balance with a user's Ethereum account address\n    mapping (address => uint) public foodBalances;\n\n    // When 'Order' contract is deployed:\n    // 1. set the deploying address as the owner of the contract\n    // 2. set the deployed smart contract's food balance to 250\n    constructor() {\n        // this sets the owner as the original address that deployed the contract because the constructor only gets called when the contract is first created\n        owner = msg.sender;\n        foodBalances[address(this)] = 250;\n    }\n\n    // Allow the owner to increase the smart contract's food balance\n    function increaseBalance(uint amount) public {\n        require(msg.sender == owner, \"Only the owner can increase balanace.\");\n        foodBalances[address(this)] += amount;\n    }\n\n    // Allow anyone to purchase food\n    function purchase(uint amount) public payable {\n        require(msg.value >= amount * 1 ether, \"You must pay at least 1 ETH per food thing.\");\n        require(foodBalances[address(this)] >= amount, \"Not enough food in stock to complete this purchase\");\n        foodBalances[address(this)] -= amount;\n        foodBalances[msg.sender] += amount;\n    }\n}\n",
  "sourcePath": "C:/Users/meesh/repos/blog-examples/order-dapp/web/contracts/Order.sol",
  "compiler": {
    "name": "solc",
    "version": "0.8.9+commit.e5eed63a.Emscripten.clang"
  },
  "schemaVersion": "3.2.3",
  "updatedAt": "2021-10-24T22:28:38.336Z",
  "networkType": "ethereum",
  "devdoc": {
    "kind": "dev",
    "methods": {},
    "version": 1
  },
  "userdoc": {
    "kind": "user",
    "methods": {},
    "version": 1
  }
}