{
  "contractName": "OrderMaker",
  "abi": [
    {
      "constant": true,
      "inputs": [
        {
          "name": "",
          "type": "address"
        }
      ],
      "name": "ordersFromUser",
      "outputs": [
        {
          "name": "itemName",
          "type": "string"
        },
        {
          "name": "price",
          "type": "uint256"
        },
        {
          "name": "quantity",
          "type": "uint256"
        }
      ],
      "payable": false,
      "stateMutability": "view",
      "type": "function",
      "signature": "0x96a30f12"
    },
    {
      "constant": true,
      "inputs": [
        {
          "name": "",
          "type": "uint256"
        }
      ],
      "name": "orders",
      "outputs": [
        {
          "name": "itemName",
          "type": "string"
        },
        {
          "name": "price",
          "type": "uint256"
        },
        {
          "name": "quantity",
          "type": "uint256"
        }
      ],
      "payable": false,
      "stateMutability": "view",
      "type": "function",
      "signature": "0xa85c38ef"
    },
    {
      "constant": true,
      "inputs": [
        {
          "name": "",
          "type": "address"
        }
      ],
      "name": "userOrderCount",
      "outputs": [
        {
          "name": "",
          "type": "uint256"
        }
      ],
      "payable": false,
      "stateMutability": "view",
      "type": "function",
      "signature": "0xec4eb4f9"
    },
    {
      "inputs": [],
      "payable": false,
      "stateMutability": "nonpayable",
      "type": "constructor",
      "signature": "constructor"
    },
    {
      "anonymous": false,
      "inputs": [
        {
          "indexed": false,
          "name": "orderId",
          "type": "uint256"
        },
        {
          "indexed": false,
          "name": "itemName",
          "type": "string"
        },
        {
          "indexed": false,
          "name": "price",
          "type": "uint256"
        }
      ],
      "name": "NewOrder",
      "type": "event",
      "signature": "0x259c921abca4850f591a4f6c2bb26564b6e363f6e1a47340f60ae5df3199cb4a"
    },
    {
      "constant": false,
      "inputs": [
        {
          "name": "_itemName",
          "type": "string"
        },
        {
          "name": "_quantity",
          "type": "uint256"
        }
      ],
      "name": "createOrder",
      "outputs": [],
      "payable": false,
      "stateMutability": "nonpayable",
      "type": "function",
      "signature": "0x97de706f"
    }
  ],
  "bytecode": "0x60806040523480156200001157600080fd5b50620000636040805190810160405280600881526020017f4a616c6170656e6f000000000000000000000000000000000000000000000000815250600962000069640100000000026401000000009004565b620006fe565b60006200008583620000a8640100000000026401000000009004565b9050620000a3838383620003ec640100000000026401000000009004565b505050565b600060405160200180807f4a616c6170656e6f000000000000000000000000000000000000000000000000815250600801905060405160208183030381529060405280519060200120826040516020018082805190602001908083835b6020831015156200012c578051825260208201915060208101905060208303925062000105565b6001836020036101000a038019825116818451168082178552505050505050905001915050604051602081830303815290604052805190602001201415620001785760099050620003e7565b60405160200180807f4665746100000000000000000000000000000000000000000000000000000000815250600401905060405160208183030381529060405280519060200120826040516020018082805190602001908083835b602083101515620001fa5780518252602082019150602081019050602083039250620001d3565b6001836020036101000a0380198251168184511680821785525050505050509050019150506040516020818303038152906040528051906020012014156200024657600c9050620003e7565b60405160200180807f5761746572000000000000000000000000000000000000000000000000000000815250600501905060405160208183030381529060405280519060200120826040516020018082805190602001908083835b602083101515620002c85780518252602082019150602081019050602083039250620002a1565b6001836020036101000a038019825116818451168082178552505050505050905001915050604051602081830303815290604052805190602001201415620003145760129050620003e7565b60405160200180807f4c656d6f6e000000000000000000000000000000000000000000000000000000815250600501905060405160208183030381529060405280519060200120826040516020018082805190602001908083835b6020831015156200039657805182526020820191506020810190506020830392506200036f565b6001836020036101000a038019825116818451168082178552505050505050905001915050604051602081830303815290604052805190602001201415620003e257600f9050620003e7565b600590505b919050565b600060606040519081016040528085815260200183815260200184815250908060018154018082558091505090600182039060005260206000209060030201600090919290919091506000820151816000019080519060200190620004539291906200064f565b5060208201518160010155604082015181600201555050506000600160008054905003905060606040519081016040528085815260200183815260200184815250600160003373ffffffffffffffffffffffffffffffffffffffff1673ffffffffffffffffffffffffffffffffffffffff1681526020019081526020016000206000820151816000019080519060200190620004f19291906200064f565b506020820151816001015560408201518160020155905050600260003373ffffffffffffffffffffffffffffffffffffffff1673ffffffffffffffffffffffffffffffffffffffff168152602001908152602001600020600081548092919060010191905055600260003373ffffffffffffffffffffffffffffffffffffffff1673ffffffffffffffffffffffffffffffffffffffff168152602001908152602001600020819055507f259c921abca4850f591a4f6c2bb26564b6e363f6e1a47340f60ae5df3199cb4a8185846040518084815260200180602001838152602001828103825284818151815260200191508051906020019080838360005b838110156200060c578082015181840152602081019050620005ef565b50505050905090810190601f1680156200063a5780820380516001836020036101000a031916815260200191505b5094505050505060405180910390a150505050565b828054600181600116156101000203166002900490600052602060002090601f016020900481019282601f106200069257805160ff1916838001178555620006c3565b82800160010185558215620006c3579182015b82811115620006c2578251825591602001919060010190620006a5565b5b509050620006d29190620006d6565b5090565b620006fb91905b80821115620006f7576000816000905550600101620006dd565b5090565b90565b610b61806200070e6000396000f3fe608060405260043610610062576000357c0100000000000000000000000000000000000000000000000000000000900463ffffffff16806396a30f121461006757806397de706f1461013f578063a85c38ef14610211578063ec4eb4f9146102d3575b600080fd5b34801561007357600080fd5b506100b66004803603602081101561008a57600080fd5b81019080803573ffffffffffffffffffffffffffffffffffffffff169060200190929190505050610338565b6040518080602001848152602001838152602001828103825285818151815260200191508051906020019080838360005b838110156101025780820151818401526020810190506100e7565b50505050905090810190601f16801561012f5780820380516001836020036101000a031916815260200191505b5094505050505060405180910390f35b34801561014b57600080fd5b5061020f6004803603604081101561016257600080fd5b810190808035906020019064010000000081111561017f57600080fd5b82018360208201111561019157600080fd5b803590602001918460018302840111640100000000831117156101b357600080fd5b91908080601f016020809104026020016040519081016040528093929190818152602001838380828437600081840152601f19601f820116905080830192505050505050509192919290803590602001909291905050506103fa565b005b34801561021d57600080fd5b5061024a6004803603602081101561023457600080fd5b8101908080359060200190929190505050610417565b6040518080602001848152602001838152602001828103825285818151815260200191508051906020019080838360005b8381101561029657808201518184015260208101905061027b565b50505050905090810190601f1680156102c35780820380516001836020036101000a031916815260200191505b5094505050505060405180910390f35b3480156102df57600080fd5b50610322600480360360208110156102f657600080fd5b81019080803573ffffffffffffffffffffffffffffffffffffffff1690602001909291905050506104e8565b6040518082815260200191505060405180910390f35b6001602052806000526040600020600091509050806000018054600181600116156101000203166002900480601f0160208091040260200160405190810160405280929190818152602001828054600181600116156101000203166002900480156103e45780601f106103b9576101008083540402835291602001916103e4565b820191906000526020600020905b8154815290600101906020018083116103c757829003601f168201915b5050505050908060010154908060020154905083565b600061040583610500565b9050610412838383610834565b505050565b60008181548110151561042657fe5b9060005260206000209060030201600091509050806000018054600181600116156101000203166002900480601f0160208091040260200160405190810160405280929190818152602001828054600181600116156101000203166002900480156104d25780601f106104a7576101008083540402835291602001916104d2565b820191906000526020600020905b8154815290600101906020018083116104b557829003601f168201915b5050505050908060010154908060020154905083565b60026020528060005260406000206000915090505481565b600060405160200180807f4a616c6170656e6f000000000000000000000000000000000000000000000000815250600801905060405160208183030381529060405280519060200120826040516020018082805190602001908083835b602083101515610582578051825260208201915060208101905060208303925061055d565b6001836020036101000a0380198251168184511680821785525050505050509050019150506040516020818303038152906040528051906020012014156105cc576009905061082f565b60405160200180807f4665746100000000000000000000000000000000000000000000000000000000815250600401905060405160208183030381529060405280519060200120826040516020018082805190602001908083835b60208310151561064c5780518252602082019150602081019050602083039250610627565b6001836020036101000a03801982511681845116808217855250505050505090500191505060405160208183030381529060405280519060200120141561069657600c905061082f565b60405160200180807f5761746572000000000000000000000000000000000000000000000000000000815250600501905060405160208183030381529060405280519060200120826040516020018082805190602001908083835b60208310151561071657805182526020820191506020810190506020830392506106f1565b6001836020036101000a038019825116818451168082178552505050505050905001915050604051602081830303815290604052805190602001201415610760576012905061082f565b60405160200180807f4c656d6f6e000000000000000000000000000000000000000000000000000000815250600501905060405160208183030381529060405280519060200120826040516020018082805190602001908083835b6020831015156107e057805182526020820191506020810190506020830392506107bb565b6001836020036101000a03801982511681845116808217855250505050505090500191505060405160208183030381529060405280519060200120141561082a57600f905061082f565b600590505b919050565b600060606040519081016040528085815260200183815260200184815250908060018154018082558091505090600182039060005260206000209060030201600090919290919091506000820151816000019080519060200190610899929190610a90565b5060208201518160010155604082015181600201555050506000600160008054905003905060606040519081016040528085815260200183815260200184815250600160003373ffffffffffffffffffffffffffffffffffffffff1673ffffffffffffffffffffffffffffffffffffffff1681526020019081526020016000206000820151816000019080519060200190610935929190610a90565b506020820151816001015560408201518160020155905050600260003373ffffffffffffffffffffffffffffffffffffffff1673ffffffffffffffffffffffffffffffffffffffff168152602001908152602001600020600081548092919060010191905055600260003373ffffffffffffffffffffffffffffffffffffffff1673ffffffffffffffffffffffffffffffffffffffff168152602001908152602001600020819055507f259c921abca4850f591a4f6c2bb26564b6e363f6e1a47340f60ae5df3199cb4a8185846040518084815260200180602001838152602001828103825284818151815260200191508051906020019080838360005b83811015610a4e578082015181840152602081019050610a33565b50505050905090810190601f168015610a7b5780820380516001836020036101000a031916815260200191505b5094505050505060405180910390a150505050565b828054600181600116156101000203166002900490600052602060002090601f016020900481019282601f10610ad157805160ff1916838001178555610aff565b82800160010185558215610aff579182015b82811115610afe578251825591602001919060010190610ae3565b5b509050610b0c9190610b10565b5090565b610b3291905b80821115610b2e576000816000905550600101610b16565b5090565b9056fea165627a7a72305820a7d9556b2ea5ea3039f820bfd72892e863d4c4d6052f415c8cb6097f192c805e0029",
  "source": "pragma solidity ^0.5.0;\n\ncontract OrderMaker {\n  event NewOrder(uint256 orderId, string itemName, uint256 price);\n\n  struct Order {\n    string itemName;\n    uint256 price;\n    uint256 quantity;\n  }\n\n  Order[] public orders;\n\n  constructor() public {\n    createOrder('Jalapeno', 9);\n  }\n\n  // For each order id, we assign a user address\n  // Looks like: {1 : 0x9j01rf09j09f2w}\n  mapping(address => Order) public ordersFromUser;\n  mapping(address => uint256) public userOrderCount;\n\n  function _lookupPrice(string memory _itemName)\n    private\n    pure\n    returns (uint256 price)\n  {\n    if (\n      keccak256(abi.encodePacked(_itemName)) ==\n      keccak256(abi.encodePacked('Jalapeno'))\n    ) {\n      return 9;\n    } else if (\n      keccak256(abi.encodePacked(_itemName)) ==\n      keccak256(abi.encodePacked('Feta'))\n    ) {\n      return 12;\n    } else if (\n      keccak256(abi.encodePacked(_itemName)) ==\n      keccak256(abi.encodePacked('Water'))\n    ) {\n      return 18;\n    } else if (\n      keccak256(abi.encodePacked(_itemName)) ==\n      keccak256(abi.encodePacked('Lemon'))\n    ) {\n      return 15;\n    } else {\n      return 5;\n    }\n  }\n\n  function _createOrder(\n    string memory _itemName,\n    uint256 _quantity,\n    uint256 _price\n  ) internal {\n    orders.push(Order(_itemName, _price, _quantity));\n\n    uint256 id = orders.length - 1;\n\n    ordersFromUser[msg.sender] = Order(_itemName, _price, _quantity);\n\n    userOrderCount[msg.sender] = userOrderCount[msg.sender]++;\n\n    emit NewOrder(id, _itemName, _price);\n  }\n\n  // Allow anyone to create an order\n  function createOrder(string memory _itemName, uint256 _quantity) public {\n    uint256 itemPrice = _lookupPrice(_itemName);\n    _createOrder(_itemName, _quantity, itemPrice);\n  }\n}\n",
  "sourcePath": "/Users/milecia/Repos/redwood_stuff/blog-examples/order-dapp/web/contracts/OrderMaker.sol",
  "compiler": {
    "name": "solc",
    "version": "0.5.0+commit.1d4f565a.Emscripten.clang"
  },
  "schemaVersion": "3.0.1",
  "updatedAt": "2021-10-31T01:43:01.455Z",
  "devdoc": {
    "methods": {}
  },
  "userdoc": {
    "methods": {}
  }
}