{
  "contractName": "OrderMaker",
  "abi": [
    {
      "constant": true,
      "inputs": [
        {
          "name": "",
          "type": "uint256"
        }
      ],
      "name": "ordersFromUser",
      "outputs": [
        {
          "name": "",
          "type": "address"
        }
      ],
      "payable": false,
      "stateMutability": "view",
      "type": "function",
      "signature": "0x61caab7f"
    },
    {
      "constant": true,
      "inputs": [
        {
          "name": "",
          "type": "uint256"
        }
      ],
      "name": "orders",
      "outputs": [
        {
          "name": "itemName",
          "type": "string"
        },
        {
          "name": "price",
          "type": "uint256"
        },
        {
          "name": "quantity",
          "type": "uint256"
        }
      ],
      "payable": false,
      "stateMutability": "view",
      "type": "function",
      "signature": "0xa85c38ef"
    },
    {
      "constant": true,
      "inputs": [
        {
          "name": "",
          "type": "address"
        }
      ],
      "name": "userOrderCount",
      "outputs": [
        {
          "name": "",
          "type": "uint256"
        }
      ],
      "payable": false,
      "stateMutability": "view",
      "type": "function",
      "signature": "0xec4eb4f9"
    },
    {
      "anonymous": false,
      "inputs": [
        {
          "indexed": false,
          "name": "orderId",
          "type": "uint256"
        },
        {
          "indexed": false,
          "name": "itemName",
          "type": "string"
        },
        {
          "indexed": false,
          "name": "price",
          "type": "uint256"
        }
      ],
      "name": "NewOrder",
      "type": "event",
      "signature": "0x259c921abca4850f591a4f6c2bb26564b6e363f6e1a47340f60ae5df3199cb4a"
    },
    {
      "constant": false,
      "inputs": [
        {
          "name": "_itemName",
          "type": "string"
        },
        {
          "name": "_quantity",
          "type": "uint256"
        }
      ],
      "name": "createOrder",
      "outputs": [],
      "payable": false,
      "stateMutability": "nonpayable",
      "type": "function",
      "signature": "0x97de706f"
    }
  ],
  "bytecode": "0x608060405234801561001057600080fd5b50610a38806100206000396000f3fe608060405260043610610062576000357c0100000000000000000000000000000000000000000000000000000000900463ffffffff16806361caab7f1461006757806397de706f146100e2578063a85c38ef146101b4578063ec4eb4f914610276575b600080fd5b34801561007357600080fd5b506100a06004803603602081101561008a57600080fd5b81019080803590602001909291905050506102db565b604051808273ffffffffffffffffffffffffffffffffffffffff1673ffffffffffffffffffffffffffffffffffffffff16815260200191505060405180910390f35b3480156100ee57600080fd5b506101b26004803603604081101561010557600080fd5b810190808035906020019064010000000081111561012257600080fd5b82018360208201111561013457600080fd5b8035906020019184600183028401116401000000008311171561015657600080fd5b91908080601f016020809104026020016040519081016040528093929190818152602001838380828437600081840152601f19601f8201169050808301925050505050505091929192908035906020019092919050505061030e565b005b3480156101c057600080fd5b506101ed600480360360208110156101d757600080fd5b810190808035906020019092919050505061032b565b6040518080602001848152602001838152602001828103825285818151815260200191508051906020019080838360005b8381101561023957808201518184015260208101905061021e565b50505050905090810190601f1680156102665780820380516001836020036101000a031916815260200191505b5094505050505060405180910390f35b34801561028257600080fd5b506102c56004803603602081101561029957600080fd5b81019080803573ffffffffffffffffffffffffffffffffffffffff1690602001909291905050506103fc565b6040518082815260200191505060405180910390f35b60016020528060005260406000206000915054906101000a900473ffffffffffffffffffffffffffffffffffffffff1681565b600061031983610414565b9050610326838383610748565b505050565b60008181548110151561033a57fe5b9060005260206000209060030201600091509050806000018054600181600116156101000203166002900480601f0160208091040260200160405190810160405280929190818152602001828054600181600116156101000203166002900480156103e65780601f106103bb576101008083540402835291602001916103e6565b820191906000526020600020905b8154815290600101906020018083116103c957829003601f168201915b5050505050908060010154908060020154905083565b60026020528060005260406000206000915090505481565b600060405160200180807f4a616c6170656e6f000000000000000000000000000000000000000000000000815250600801905060405160208183030381529060405280519060200120826040516020018082805190602001908083835b6020831015156104965780518252602082019150602081019050602083039250610471565b6001836020036101000a0380198251168184511680821785525050505050509050019150506040516020818303038152906040528051906020012014156104e05760099050610743565b60405160200180807f4665746100000000000000000000000000000000000000000000000000000000815250600401905060405160208183030381529060405280519060200120826040516020018082805190602001908083835b602083101515610560578051825260208201915060208101905060208303925061053b565b6001836020036101000a0380198251168184511680821785525050505050509050019150506040516020818303038152906040528051906020012014156105aa57600c9050610743565b60405160200180807f5761746572000000000000000000000000000000000000000000000000000000815250600501905060405160208183030381529060405280519060200120826040516020018082805190602001908083835b60208310151561062a5780518252602082019150602081019050602083039250610605565b6001836020036101000a0380198251168184511680821785525050505050509050019150506040516020818303038152906040528051906020012014156106745760129050610743565b60405160200180807f4c656d6f6e000000000000000000000000000000000000000000000000000000815250600501905060405160208183030381529060405280519060200120826040516020018082805190602001908083835b6020831015156106f457805182526020820191506020810190506020830392506106cf565b6001836020036101000a03801982511681845116808217855250505050505090500191505060405160208183030381529060405280519060200120141561073e57600f9050610743565b600590505b919050565b6000606060405190810160405280858152602001838152602001848152509080600181540180825580915050906001820390600052602060002090600302016000909192909190915060008201518160000190805190602001906107ad929190610967565b50602082015181600101556040820151816002015550505060006001600080549050039050336001600083815260200190815260200160002060006101000a81548173ffffffffffffffffffffffffffffffffffffffff021916908373ffffffffffffffffffffffffffffffffffffffff160217905550600260003373ffffffffffffffffffffffffffffffffffffffff1673ffffffffffffffffffffffffffffffffffffffff168152602001908152602001600020600081548092919060010191905055600260003373ffffffffffffffffffffffffffffffffffffffff1673ffffffffffffffffffffffffffffffffffffffff168152602001908152602001600020819055507f259c921abca4850f591a4f6c2bb26564b6e363f6e1a47340f60ae5df3199cb4a8185846040518084815260200180602001838152602001828103825284818151815260200191508051906020019080838360005b8381101561092557808201518184015260208101905061090a565b50505050905090810190601f1680156109525780820380516001836020036101000a031916815260200191505b5094505050505060405180910390a150505050565b828054600181600116156101000203166002900490600052602060002090601f016020900481019282601f106109a857805160ff19168380011785556109d6565b828001600101855582156109d6579182015b828111156109d55782518255916020019190600101906109ba565b5b5090506109e391906109e7565b5090565b610a0991905b80821115610a055760008160009055506001016109ed565b5090565b9056fea165627a7a723058200e87bcf9428a8f6cb828a042a588c1ee3ac1b1c2f8c4d6d082187b9db9c553050029",
  "source": "pragma solidity ^0.5.0;\n\ncontract OrderMaker {\n  event NewOrder(uint256 orderId, string itemName, uint256 price);\n\n  struct Order {\n    string itemName;\n    uint256 price;\n    uint256 quantity;\n  }\n\n  Order[] public orders;\n\n  // For each order id, we assign a user address\n  // Looks like: {1 : 0x9j01rf09j09f2w}\n  mapping(uint256 => address) public ordersFromUser;\n  mapping(address => uint256) public userOrderCount;\n\n  function _lookupPrice(string memory _itemName)\n    private\n    pure\n    returns (uint256 price)\n  {\n    if (\n      keccak256(abi.encodePacked(_itemName)) ==\n      keccak256(abi.encodePacked('Jalapeno'))\n    ) {\n      return 9;\n    } else if (\n      keccak256(abi.encodePacked(_itemName)) ==\n      keccak256(abi.encodePacked('Feta'))\n    ) {\n      return 12;\n    } else if (\n      keccak256(abi.encodePacked(_itemName)) ==\n      keccak256(abi.encodePacked('Water'))\n    ) {\n      return 18;\n    } else if (\n      keccak256(abi.encodePacked(_itemName)) ==\n      keccak256(abi.encodePacked('Lemon'))\n    ) {\n      return 15;\n    } else {\n      return 5;\n    }\n  }\n\n  function _createOrder(\n    string memory _itemName,\n    uint256 _quantity,\n    uint256 _price\n  ) internal {\n    orders.push(Order(_itemName, _price, _quantity));\n\n    uint256 id = orders.length - 1;\n\n    ordersFromUser[id] = msg.sender;\n\n    userOrderCount[msg.sender] = userOrderCount[msg.sender]++;\n\n    emit NewOrder(id, _itemName, _price);\n  }\n\n  // Allow anyone to create an order\n  function createOrder(string memory _itemName, uint256 _quantity) public {\n    uint256 itemPrice = _lookupPrice(_itemName);\n    _createOrder(_itemName, _quantity, itemPrice);\n  }\n}\n",
  "sourcePath": "/Users/milecia/Repos/redwood_stuff/blog-examples/order-dapp/web/contracts/OrderMaker.sol",
  "compiler": {
    "name": "solc",
    "version": "0.5.0+commit.1d4f565a.Emscripten.clang"
  },
  "schemaVersion": "3.0.1",
  "updatedAt": "2021-10-29T14:38:15.345Z",
  "devdoc": {
    "methods": {}
  },
  "userdoc": {
    "methods": {}
  }
}