{
  "contractName": "VideoList",
  "abi": [
    {
      "constant": true,
      "inputs": [],
      "name": "videoCount",
      "outputs": [
        {
          "name": "",
          "type": "uint256"
        }
      ],
      "payable": false,
      "stateMutability": "view",
      "type": "function",
      "signature": "0xc61b5f4c"
    },
    {
      "constant": true,
      "inputs": [
        {
          "name": "",
          "type": "uint256"
        }
      ],
      "name": "videos",
      "outputs": [
        {
          "name": "id",
          "type": "uint256"
        },
        {
          "name": "url",
          "type": "string"
        }
      ],
      "payable": false,
      "stateMutability": "view",
      "type": "function",
      "signature": "0xe6821bf5"
    },
    {
      "inputs": [],
      "payable": false,
      "stateMutability": "nonpayable",
      "type": "constructor",
      "signature": "constructor"
    },
    {
      "constant": false,
      "inputs": [
        {
          "name": "_content",
          "type": "string"
        }
      ],
      "name": "createVideo",
      "outputs": [],
      "payable": false,
      "stateMutability": "nonpayable",
      "type": "function",
      "signature": "0x8e878969"
    }
  ],
  "bytecode": "0x60806040526000805534801561001457600080fd5b506100af608060405190810160405280605e81526020017f68747470733a2f2f7265732e636c6f7564696e6172792e636f6d2f6d696c656381526020017f69612f766964656f2f75706c6f61642f635f7061642c685f3336302c775f343881526020017f302c715f37302c64755f31302f656c657068616e745f686572642e6d703400008152506100b4640100000000026401000000009004565b61019b565b600080546001908101808355604080518082018252828152602080820187815293865284815291909420845181559151805192936100fa93908501929190910190610100565b50505050565b828054600181600116156101000203166002900490600052602060002090601f016020900481019282601f1061014157805160ff191683800117855561016e565b8280016001018555821561016e579182015b8281111561016e578251825591602001919060010190610153565b5061017a92915061017e565b5090565b61019891905b8082111561017a5760008155600101610184565b90565b61039f806101aa6000396000f3fe6080604052600436106100565763ffffffff7c01000000000000000000000000000000000000000000000000000000006000350416638e878969811461005b578063c61b5f4c14610110578063e6821bf514610137575b600080fd5b34801561006757600080fd5b5061010e6004803603602081101561007e57600080fd5b81019060208101813564010000000081111561009957600080fd5b8201836020820111156100ab57600080fd5b803590602001918460018302840111640100000000831117156100cd57600080fd5b91908080601f0160208091040260200160405190810160405280939291908181526020018383808284376000920191909152509295506101e0945050505050565b005b34801561011c57600080fd5b5061012561022c565b60408051918252519081900360200190f35b34801561014357600080fd5b506101616004803603602081101561015a57600080fd5b5035610232565b6040518083815260200180602001828103825283818151815260200191508051906020019080838360005b838110156101a457818101518382015260200161018c565b50505050905090810190601f1680156101d15780820380516001836020036101000a031916815260200191505b50935050505060405180910390f35b60008054600190810180835560408051808201825282815260208082018781529386528481529190942084518155915180519293610226939085019291909101906102d8565b50505050565b60005481565b600160208181526000928352604092839020805481840180548651600296821615610100026000190190911695909504601f810185900485028601850190965285855290949193929091908301828280156102ce5780601f106102a3576101008083540402835291602001916102ce565b820191906000526020600020905b8154815290600101906020018083116102b157829003601f168201915b5050505050905082565b828054600181600116156101000203166002900490600052602060002090601f016020900481019282601f1061031957805160ff1916838001178555610346565b82800160010185558215610346579182015b8281111561034657825182559160200191906001019061032b565b50610352929150610356565b5090565b61037091905b80821115610352576000815560010161035c565b9056fea165627a7a72305820c35da8ea61e7887f9e1ab2879b0ddade832c8ec3416e24bfa99493ead7e7e8910029",
  "source": "pragma solidity ^0.5.0;\n\ncontract VideoList {\n  uint public videoCount = 0;\n\n  struct Video {\n    uint id;\n    string url;\n  }\n\n  mapping(uint => Video) public videos;\n\n  constructor() public {\n    createVideo(\"https://res.cloudinary.com/milecia/video/upload/c_pad,h_360,w_480,q_70,du_10/elephant_herd.mp4\");\n  }\n\n  function createVideo(string memory _content) public {\n    videoCount ++;\n    videos[videoCount] = Video(videoCount, _content);\n  }\n}\n",
  "sourcePath": "/Users/milecia/Repos/redwood_stuff/blog-examples/user-dapp/web/contracts/VideoList.sol",
  "compiler": {
    "name": "solc",
    "version": "0.5.0+commit.1d4f565a.Emscripten.clang"
  },
  "schemaVersion": "3.0.1",
  "updatedAt": "2021-08-13T00:19:17.332Z",
  "devdoc": {
    "methods": {}
  },
  "userdoc": {
    "methods": {}
  }
}